{
    "_format": "hh-sol-artifact-1",
    "contractName": "MstNFT",
    "sourceName": "contracts/MstNFT.sol",
    "abi": [
        {
            "inputs": [
                {
                    "internalType": "address payable",
                    "name": "shareholderAddress_",
                    "type": "address"
                }
            ],
            "stateMutability": "nonpayable",
            "type": "constructor"
        },
        {
            "anonymous": false,
            "inputs": [
                {
                    "indexed": true,
                    "internalType": "address",
                    "name": "owner",
                    "type": "address"
                },
                {
                    "indexed": true,
                    "internalType": "address",
                    "name": "approved",
                    "type": "address"
                },
                {
                    "indexed": true,
                    "internalType": "uint256",
                    "name": "tokenId",
                    "type": "uint256"
                }
            ],
            "name": "Approval",
            "type": "event"
        },
        {
            "anonymous": false,
            "inputs": [
                {
                    "indexed": true,
                    "internalType": "address",
                    "name": "owner",
                    "type": "address"
                },
                {
                    "indexed": true,
                    "internalType": "address",
                    "name": "operator",
                    "type": "address"
                },
                {
                    "indexed": false,
                    "internalType": "bool",
                    "name": "approved",
                    "type": "bool"
                }
            ],
            "name": "ApprovalForAll",
            "type": "event"
        },
        {
            "anonymous": false,
            "inputs": [
                {
                    "indexed": true,
                    "internalType": "address",
                    "name": "previousOwner",
                    "type": "address"
                },
                {
                    "indexed": true,
                    "internalType": "address",
                    "name": "newOwner",
                    "type": "address"
                }
            ],
            "name": "OwnershipTransferred",
            "type": "event"
        },
        {
            "anonymous": false,
            "inputs": [
                {
                    "indexed": false,
                    "internalType": "address",
                    "name": "account",
                    "type": "address"
                }
            ],
            "name": "Paused",
            "type": "event"
        },
        {
            "anonymous": false,
            "inputs": [
                {
                    "indexed": true,
                    "internalType": "address",
                    "name": "from",
                    "type": "address"
                },
                {
                    "indexed": true,
                    "internalType": "address",
                    "name": "to",
                    "type": "address"
                },
                {
                    "indexed": true,
                    "internalType": "uint256",
                    "name": "tokenId",
                    "type": "uint256"
                }
            ],
            "name": "Transfer",
            "type": "event"
        },
        {
            "anonymous": false,
            "inputs": [
                {
                    "indexed": false,
                    "internalType": "address",
                    "name": "account",
                    "type": "address"
                }
            ],
            "name": "Unpaused",
            "type": "event"
        },
        {
            "inputs": [
                {
                    "internalType": "address",
                    "name": "to",
                    "type": "address"
                },
                {
                    "internalType": "uint256",
                    "name": "tokenId",
                    "type": "uint256"
                }
            ],
            "name": "approve",
            "outputs": [],
            "stateMutability": "nonpayable",
            "type": "function"
        },
        {
            "inputs": [
                {
                    "internalType": "address",
                    "name": "owner",
                    "type": "address"
                }
            ],
            "name": "balanceOf",
            "outputs": [
                {
                    "internalType": "uint256",
                    "name": "",
                    "type": "uint256"
                }
            ],
            "stateMutability": "view",
            "type": "function"
        },
        {
            "inputs": [],
            "name": "count",
            "outputs": [
                {
                    "internalType": "uint256",
                    "name": "",
                    "type": "uint256"
                }
            ],
            "stateMutability": "view",
            "type": "function"
        },
        {
            "inputs": [
                {
                    "internalType": "uint256",
                    "name": "tokenId",
                    "type": "uint256"
                }
            ],
            "name": "getApproved",
            "outputs": [
                {
                    "internalType": "address",
                    "name": "",
                    "type": "address"
                }
            ],
            "stateMutability": "view",
            "type": "function"
        },
        {
            "inputs": [
                {
                    "internalType": "address",
                    "name": "owner",
                    "type": "address"
                },
                {
                    "internalType": "address",
                    "name": "operator",
                    "type": "address"
                }
            ],
            "name": "isApprovedForAll",
            "outputs": [
                {
                    "internalType": "bool",
                    "name": "",
                    "type": "bool"
                }
            ],
            "stateMutability": "view",
            "type": "function"
        },
        {
            "inputs": [],
            "name": "mint",
            "outputs": [],
            "stateMutability": "payable",
            "type": "function"
        },
        {
            "inputs": [],
            "name": "name",
            "outputs": [
                {
                    "internalType": "string",
                    "name": "",
                    "type": "string"
                }
            ],
            "stateMutability": "view",
            "type": "function"
        },
        {
            "inputs": [],
            "name": "owner",
            "outputs": [
                {
                    "internalType": "address",
                    "name": "",
                    "type": "address"
                }
            ],
            "stateMutability": "view",
            "type": "function"
        },
        {
            "inputs": [
                {
                    "internalType": "uint256",
                    "name": "tokenId",
                    "type": "uint256"
                }
            ],
            "name": "ownerOf",
            "outputs": [
                {
                    "internalType": "address",
                    "name": "",
                    "type": "address"
                }
            ],
            "stateMutability": "view",
            "type": "function"
        },
        {
            "inputs": [],
            "name": "pause",
            "outputs": [],
            "stateMutability": "nonpayable",
            "type": "function"
        },
        {
            "inputs": [],
            "name": "paused",
            "outputs": [
                {
                    "internalType": "bool",
                    "name": "",
                    "type": "bool"
                }
            ],
            "stateMutability": "view",
            "type": "function"
        },
        {
            "inputs": [],
            "name": "payToMint",
            "outputs": [],
            "stateMutability": "payable",
            "type": "function"
        },
        {
            "inputs": [],
            "name": "renounceOwnership",
            "outputs": [],
            "stateMutability": "nonpayable",
            "type": "function"
        },
        {
            "inputs": [
                {
                    "internalType": "address",
                    "name": "to",
                    "type": "address"
                },
                {
                    "internalType": "string",
                    "name": "uri",
                    "type": "string"
                }
            ],
            "name": "safeMint",
            "outputs": [],
            "stateMutability": "nonpayable",
            "type": "function"
        },
        {
            "inputs": [
                {
                    "internalType": "address",
                    "name": "from",
                    "type": "address"
                },
                {
                    "internalType": "address",
                    "name": "to",
                    "type": "address"
                },
                {
                    "internalType": "uint256",
                    "name": "tokenId",
                    "type": "uint256"
                }
            ],
            "name": "safeTransferFrom",
            "outputs": [],
            "stateMutability": "nonpayable",
            "type": "function"
        },
        {
            "inputs": [
                {
                    "internalType": "address",
                    "name": "from",
                    "type": "address"
                },
                {
                    "internalType": "address",
                    "name": "to",
                    "type": "address"
                },
                {
                    "internalType": "uint256",
                    "name": "tokenId",
                    "type": "uint256"
                },
                {
                    "internalType": "bytes",
                    "name": "_data",
                    "type": "bytes"
                }
            ],
            "name": "safeTransferFrom",
            "outputs": [],
            "stateMutability": "nonpayable",
            "type": "function"
        },
        {
            "inputs": [
                {
                    "internalType": "address",
                    "name": "operator",
                    "type": "address"
                },
                {
                    "internalType": "bool",
                    "name": "approved",
                    "type": "bool"
                }
            ],
            "name": "setApprovalForAll",
            "outputs": [],
            "stateMutability": "nonpayable",
            "type": "function"
        },
        {
            "inputs": [],
            "name": "shareholderAddress",
            "outputs": [
                {
                    "internalType": "address payable",
                    "name": "",
                    "type": "address"
                }
            ],
            "stateMutability": "view",
            "type": "function"
        },
        {
            "inputs": [
                {
                    "internalType": "bytes4",
                    "name": "interfaceId",
                    "type": "bytes4"
                }
            ],
            "name": "supportsInterface",
            "outputs": [
                {
                    "internalType": "bool",
                    "name": "",
                    "type": "bool"
                }
            ],
            "stateMutability": "view",
            "type": "function"
        },
        {
            "inputs": [],
            "name": "symbol",
            "outputs": [
                {
                    "internalType": "string",
                    "name": "",
                    "type": "string"
                }
            ],
            "stateMutability": "view",
            "type": "function"
        },
        {
            "inputs": [
                {
                    "internalType": "uint256",
                    "name": "tokenId",
                    "type": "uint256"
                }
            ],
            "name": "tokenURI",
            "outputs": [
                {
                    "internalType": "string",
                    "name": "",
                    "type": "string"
                }
            ],
            "stateMutability": "view",
            "type": "function"
        },
        {
            "inputs": [
                {
                    "internalType": "address",
                    "name": "from",
                    "type": "address"
                },
                {
                    "internalType": "address",
                    "name": "to",
                    "type": "address"
                },
                {
                    "internalType": "uint256",
                    "name": "tokenId",
                    "type": "uint256"
                }
            ],
            "name": "transferFrom",
            "outputs": [],
            "stateMutability": "nonpayable",
            "type": "function"
        },
        {
            "inputs": [
                {
                    "internalType": "address",
                    "name": "newOwner",
                    "type": "address"
                }
            ],
            "name": "transferOwnership",
            "outputs": [],
            "stateMutability": "nonpayable",
            "type": "function"
        },
        {
            "inputs": [],
            "name": "unpause",
            "outputs": [],
            "stateMutability": "nonpayable",
            "type": "function"
        },
        {
            "inputs": [],
            "name": "withdraw",
            "outputs": [],
            "stateMutability": "nonpayable",
            "type": "function"
        }
    ],
    "bytecode": "0x60a06040523480156200001157600080fd5b5060405162003fd938038062003fd9833981810160405281019062000037919062000320565b6040518060400160405280601681526020017f4d6f6e6173746572792047796174736f207820524d41000000000000000000008152506040518060400160405280600681526020017f4d535456495000000000000000000000000000000000000000000000000000008152508160009080519060200190620000bb92919062000259565b508060019080519060200190620000d492919062000259565b5050506000600760006101000a81548160ff02191690831515021790555062000112620001066200018b60201b60201c565b6200019360201b60201c565b600073ffffffffffffffffffffffffffffffffffffffff168173ffffffffffffffffffffffffffffffffffffffff1614156200014d57600080fd5b8073ffffffffffffffffffffffffffffffffffffffff1660808173ffffffffffffffffffffffffffffffffffffffff1660601b8152505050620003ff565b600033905090565b6000600760019054906101000a900473ffffffffffffffffffffffffffffffffffffffff16905081600760016101000a81548173ffffffffffffffffffffffffffffffffffffffff021916908373ffffffffffffffffffffffffffffffffffffffff1602179055508173ffffffffffffffffffffffffffffffffffffffff168173ffffffffffffffffffffffffffffffffffffffff167f8be0079c531659141344cd1fd0a4f28419497f9722a3daafe3b4186f6b6457e060405160405180910390a35050565b828054620002679062000380565b90600052602060002090601f0160209004810192826200028b5760008555620002d7565b82601f10620002a657805160ff1916838001178555620002d7565b82800160010185558215620002d7579182015b82811115620002d6578251825591602001919060010190620002b9565b5b509050620002e69190620002ea565b5090565b5b8082111562000305576000816000905550600101620002eb565b5090565b6000815190506200031a81620003e5565b92915050565b6000602082840312156200033357600080fd5b6000620003438482850162000309565b91505092915050565b6000620003598262000360565b9050919050565b600073ffffffffffffffffffffffffffffffffffffffff82169050919050565b600060028204905060018216806200039957607f821691505b60208210811415620003b057620003af620003b6565b5b50919050565b7f4e487b7100000000000000000000000000000000000000000000000000000000600052602260045260246000fd5b620003f0816200034c565b8114620003fc57600080fd5b50565b60805160601c613bb46200042560003960008181610a200152610e570152613bb46000f3fe6080604052600436106101665760003560e01c80636352211e116100d157806395d89b411161008a578063c87b56dd11610064578063c87b56dd1461049e578063d204c45e146104db578063e985e9c514610504578063f2fde38b1461054157610166565b806395d89b4114610421578063a22cb4651461044c578063b88d4fde1461047557610166565b80636352211e1461032357806370a0823114610360578063715018a61461039d5780638456cb59146103b45780638da5cb5b146103cb578063943d40e7146103f657610166565b806323b872dd1161012357806323b872dd1461026e5780633ccfd60b146102975780633f4ba83a146102ae57806342842e0e146102c5578063509c7180146102ee5780635c975abb146102f857610166565b806301ffc9a71461016b57806306661abd146101a857806306fdde03146101d3578063081812fc146101fe578063095ea7b31461023b5780631249c58b14610264575b600080fd5b34801561017757600080fd5b50610192600480360381019061018d919061280d565b61056a565b60405161019f9190612d8d565b60405180910390f35b3480156101b457600080fd5b506101bd61064c565b6040516101ca91906130ca565b60405180910390f35b3480156101df57600080fd5b506101e861065d565b6040516101f59190612da8565b60405180910390f35b34801561020a57600080fd5b506102256004803603810190610220919061285f565b6106ef565b6040516102329190612d0b565b60405180910390f35b34801561024757600080fd5b50610262600480360381019061025d91906127d1565b610774565b005b61026c61088c565b005b34801561027a57600080fd5b5061029560048036038101906102909190612677565b61093a565b005b3480156102a357600080fd5b506102ac61099a565b005b3480156102ba57600080fd5b506102c3610a48565b005b3480156102d157600080fd5b506102ec60048036038101906102e79190612677565b610ace565b005b6102f6610aee565b005b34801561030457600080fd5b5061030d610b9c565b60405161031a9190612d8d565b60405180910390f35b34801561032f57600080fd5b5061034a6004803603810190610345919061285f565b610bb3565b6040516103579190612d0b565b60405180910390f35b34801561036c57600080fd5b5061038760048036038101906103829190612612565b610c65565b60405161039491906130ca565b60405180910390f35b3480156103a957600080fd5b506103b2610d1d565b005b3480156103c057600080fd5b506103c9610da5565b005b3480156103d757600080fd5b506103e0610e2b565b6040516103ed9190612d0b565b60405180910390f35b34801561040257600080fd5b5061040b610e55565b6040516104189190612d26565b60405180910390f35b34801561042d57600080fd5b50610436610e79565b6040516104439190612da8565b60405180910390f35b34801561045857600080fd5b50610473600480360381019061046e9190612741565b610f0b565b005b34801561048157600080fd5b5061049c600480360381019061049791906126c6565b610f21565b005b3480156104aa57600080fd5b506104c560048036038101906104c0919061285f565b610f83565b6040516104d29190612da8565b60405180910390f35b3480156104e757600080fd5b5061050260048036038101906104fd919061277d565b610f95565b005b34801561051057600080fd5b5061052b6004803603810190610526919061263b565b611042565b6040516105389190612d8d565b60405180910390f35b34801561054d57600080fd5b5061056860048036038101906105639190612612565b6110d6565b005b60007f80ac58cd000000000000000000000000000000000000000000000000000000007bffffffffffffffffffffffffffffffffffffffffffffffffffffffff1916827bffffffffffffffffffffffffffffffffffffffffffffffffffffffff1916148061063557507f5b5e139f000000000000000000000000000000000000000000000000000000007bffffffffffffffffffffffffffffffffffffffffffffffffffffffff1916827bffffffffffffffffffffffffffffffffffffffffffffffffffffffff1916145b806106455750610644826111ce565b5b9050919050565b60006106586008611238565b905090565b60606000805461066c9061333d565b80601f01602080910402602001604051908101604052809291908181526020018280546106989061333d565b80156106e55780601f106106ba576101008083540402835291602001916106e5565b820191906000526020600020905b8154815290600101906020018083116106c857829003601f168201915b5050505050905090565b60006106fa82611246565b610739576040517f08c379a00000000000000000000000000000000000000000000000000000000081526004016107309061300a565b60405180910390fd5b6004600083815260200190815260200160002060009054906101000a900473ffffffffffffffffffffffffffffffffffffffff169050919050565b600061077f82610bb3565b90508073ffffffffffffffffffffffffffffffffffffffff168373ffffffffffffffffffffffffffffffffffffffff1614156107f0576040517f08c379a00000000000000000000000000000000000000000000000000000000081526004016107e79061308a565b60405180910390fd5b8073ffffffffffffffffffffffffffffffffffffffff1661080f6112b2565b73ffffffffffffffffffffffffffffffffffffffff16148061083e575061083d816108386112b2565b611042565b5b61087d576040517f08c379a000000000000000000000000000000000000000000000000000000000815260040161087490612f4a565b60405180910390fd5b61088783836112ba565b505050565b3466f523226980800011156108d6576040517f08c379a00000000000000000000000000000000000000000000000000000000081526004016108cd90612eaa565b60405180910390fd5b60006108e26008611238565b90506108ee3382611373565b61092d816040518060400160405280601d81526020017f68747470733a2f2f6a736f6e6b65657065722e636f6d2f622f46484549000000815250611391565b6109376008611405565b50565b61094b6109456112b2565b8261141b565b61098a576040517f08c379a0000000000000000000000000000000000000000000000000000000008152600401610981906130aa565b60405180910390fd5b6109958383836114f9565b505050565b6109a26112b2565b73ffffffffffffffffffffffffffffffffffffffff166109c0610e2b565b73ffffffffffffffffffffffffffffffffffffffff1614610a16576040517f08c379a0000000000000000000000000000000000000000000000000000000008152600401610a0d9061302a565b60405180910390fd5b6000479050610a457f000000000000000000000000000000000000000000000000000000000000000082611760565b50565b610a506112b2565b73ffffffffffffffffffffffffffffffffffffffff16610a6e610e2b565b73ffffffffffffffffffffffffffffffffffffffff1614610ac4576040517f08c379a0000000000000000000000000000000000000000000000000000000008152600401610abb9061302a565b60405180910390fd5b610acc611854565b565b610ae983838360405180602001604052806000815250610f21565b505050565b66b1a2bc2ec50000341015610b38576040517f08c379a0000000000000000000000000000000000000000000000000000000008152600401610b2f9061306a565b60405180910390fd5b6000610b446008611238565b9050610b503382611373565b610b8f816040518060400160405280601d81526020017f68747470733a2f2f6a736f6e6b65657065722e636f6d2f622f46484549000000815250611391565b610b996008611405565b50565b6000600760009054906101000a900460ff16905090565b6000806002600084815260200190815260200160002060009054906101000a900473ffffffffffffffffffffffffffffffffffffffff169050600073ffffffffffffffffffffffffffffffffffffffff168173ffffffffffffffffffffffffffffffffffffffff161415610c5c576040517f08c379a0000000000000000000000000000000000000000000000000000000008152600401610c5390612f8a565b60405180910390fd5b80915050919050565b60008073ffffffffffffffffffffffffffffffffffffffff168273ffffffffffffffffffffffffffffffffffffffff161415610cd6576040517f08c379a0000000000000000000000000000000000000000000000000000000008152600401610ccd90612f6a565b60405180910390fd5b600360008373ffffffffffffffffffffffffffffffffffffffff1673ffffffffffffffffffffffffffffffffffffffff168152602001908152602001600020549050919050565b610d256112b2565b73ffffffffffffffffffffffffffffffffffffffff16610d43610e2b565b73ffffffffffffffffffffffffffffffffffffffff1614610d99576040517f08c379a0000000000000000000000000000000000000000000000000000000008152600401610d909061302a565b60405180910390fd5b610da360006118f6565b565b610dad6112b2565b73ffffffffffffffffffffffffffffffffffffffff16610dcb610e2b565b73ffffffffffffffffffffffffffffffffffffffff1614610e21576040517f08c379a0000000000000000000000000000000000000000000000000000000008152600401610e189061302a565b60405180910390fd5b610e296119bc565b565b6000600760019054906101000a900473ffffffffffffffffffffffffffffffffffffffff16905090565b7f000000000000000000000000000000000000000000000000000000000000000081565b606060018054610e889061333d565b80601f0160208091040260200160405190810160405280929190818152602001828054610eb49061333d565b8015610f015780601f10610ed657610100808354040283529160200191610f01565b820191906000526020600020905b815481529060010190602001808311610ee457829003601f168201915b5050505050905090565b610f1d610f166112b2565b8383611a5f565b5050565b610f32610f2c6112b2565b8361141b565b610f71576040517f08c379a0000000000000000000000000000000000000000000000000000000008152600401610f68906130aa565b60405180910390fd5b610f7d84848484611bcc565b50505050565b6060610f8e82611c28565b9050919050565b610f9d6112b2565b73ffffffffffffffffffffffffffffffffffffffff16610fbb610e2b565b73ffffffffffffffffffffffffffffffffffffffff1614611011576040517f08c379a00000000000000000000000000000000000000000000000000000000081526004016110089061302a565b60405180910390fd5b600061101d6008611238565b90506110296008611405565b6110338382611373565b61103d8183611391565b505050565b6000600560008473ffffffffffffffffffffffffffffffffffffffff1673ffffffffffffffffffffffffffffffffffffffff16815260200190815260200160002060008373ffffffffffffffffffffffffffffffffffffffff1673ffffffffffffffffffffffffffffffffffffffff16815260200190815260200160002060009054906101000a900460ff16905092915050565b6110de6112b2565b73ffffffffffffffffffffffffffffffffffffffff166110fc610e2b565b73ffffffffffffffffffffffffffffffffffffffff1614611152576040517f08c379a00000000000000000000000000000000000000000000000000000000081526004016111499061302a565b60405180910390fd5b600073ffffffffffffffffffffffffffffffffffffffff168173ffffffffffffffffffffffffffffffffffffffff1614156111c2576040517f08c379a00000000000000000000000000000000000000000000000000000000081526004016111b990612e0a565b60405180910390fd5b6111cb816118f6565b50565b60007f01ffc9a7000000000000000000000000000000000000000000000000000000007bffffffffffffffffffffffffffffffffffffffffffffffffffffffff1916827bffffffffffffffffffffffffffffffffffffffffffffffffffffffff1916149050919050565b600081600001549050919050565b60008073ffffffffffffffffffffffffffffffffffffffff166002600084815260200190815260200160002060009054906101000a900473ffffffffffffffffffffffffffffffffffffffff1673ffffffffffffffffffffffffffffffffffffffff1614159050919050565b600033905090565b816004600083815260200190815260200160002060006101000a81548173ffffffffffffffffffffffffffffffffffffffff021916908373ffffffffffffffffffffffffffffffffffffffff160217905550808273ffffffffffffffffffffffffffffffffffffffff1661132d83610bb3565b73ffffffffffffffffffffffffffffffffffffffff167f8c5be1e5ebec7d5bd14f71427d1e84f3dd0314c0f7b2291e5b200ac8c7c3b92560405160405180910390a45050565b61138d828260405180602001604052806000815250611d7a565b5050565b61139a82611246565b6113d9576040517f08c379a00000000000000000000000000000000000000000000000000000000081526004016113d090612faa565b60405180910390fd5b80600660008481526020019081526020016000209080519060200190611400929190612436565b505050565b6001816000016000828254019250508190555050565b600061142682611246565b611465576040517f08c379a000000000000000000000000000000000000000000000000000000000815260040161145c90612f0a565b60405180910390fd5b600061147083610bb3565b90508073ffffffffffffffffffffffffffffffffffffffff168473ffffffffffffffffffffffffffffffffffffffff1614806114df57508373ffffffffffffffffffffffffffffffffffffffff166114c7846106ef565b73ffffffffffffffffffffffffffffffffffffffff16145b806114f057506114ef8185611042565b5b91505092915050565b8273ffffffffffffffffffffffffffffffffffffffff1661151982610bb3565b73ffffffffffffffffffffffffffffffffffffffff161461156f576040517f08c379a000000000000000000000000000000000000000000000000000000000815260040161156690612e2a565b60405180910390fd5b600073ffffffffffffffffffffffffffffffffffffffff168273ffffffffffffffffffffffffffffffffffffffff1614156115df576040517f08c379a00000000000000000000000000000000000000000000000000000000081526004016115d690612e6a565b60405180910390fd5b6115ea838383611dd5565b6115f56000826112ba565b6001600360008573ffffffffffffffffffffffffffffffffffffffff1673ffffffffffffffffffffffffffffffffffffffff16815260200190815260200160002060008282546116459190613241565b925050819055506001600360008473ffffffffffffffffffffffffffffffffffffffff1673ffffffffffffffffffffffffffffffffffffffff168152602001908152602001600020600082825461169c91906131ba565b92505081905550816002600083815260200190815260200160002060006101000a81548173ffffffffffffffffffffffffffffffffffffffff021916908373ffffffffffffffffffffffffffffffffffffffff160217905550808273ffffffffffffffffffffffffffffffffffffffff168473ffffffffffffffffffffffffffffffffffffffff167fddf252ad1be2c89b69c2b068fc378daa952ba7f163c4a11628f55a4df523b3ef60405160405180910390a461175b838383611e2d565b505050565b804710156117a3576040517f08c379a000000000000000000000000000000000000000000000000000000000815260040161179a90612eea565b60405180910390fd5b60008273ffffffffffffffffffffffffffffffffffffffff16826040516117c990612cf6565b60006040518083038185875af1925050503d8060008114611806576040519150601f19603f3d011682016040523d82523d6000602084013e61180b565b606091505b505090508061184f576040517f08c379a000000000000000000000000000000000000000000000000000000000815260040161184690612eca565b60405180910390fd5b505050565b61185c610b9c565b61189b576040517f08c379a000000000000000000000000000000000000000000000000000000000815260040161189290612dca565b60405180910390fd5b6000600760006101000a81548160ff0219169083151502179055507f5db9ee0a495bf2e6ff9c91a7834c1ba4fdd244a5e8aa4e537bd38aeae4b073aa6118df6112b2565b6040516118ec9190612d0b565b60405180910390a1565b6000600760019054906101000a900473ffffffffffffffffffffffffffffffffffffffff16905081600760016101000a81548173ffffffffffffffffffffffffffffffffffffffff021916908373ffffffffffffffffffffffffffffffffffffffff1602179055508173ffffffffffffffffffffffffffffffffffffffff168173ffffffffffffffffffffffffffffffffffffffff167f8be0079c531659141344cd1fd0a4f28419497f9722a3daafe3b4186f6b6457e060405160405180910390a35050565b6119c4610b9c565b15611a04576040517f08c379a00000000000000000000000000000000000000000000000000000000081526004016119fb90612f2a565b60405180910390fd5b6001600760006101000a81548160ff0219169083151502179055507f62e78cea01bee320cd4e420270b5ea74000d11b0c9f74754ebdbfc544b05a258611a486112b2565b604051611a559190612d0b565b60405180910390a1565b8173ffffffffffffffffffffffffffffffffffffffff168373ffffffffffffffffffffffffffffffffffffffff161415611ace576040517f08c379a0000000000000000000000000000000000000000000000000000000008152600401611ac590612e8a565b60405180910390fd5b80600560008573ffffffffffffffffffffffffffffffffffffffff1673ffffffffffffffffffffffffffffffffffffffff16815260200190815260200160002060008473ffffffffffffffffffffffffffffffffffffffff1673ffffffffffffffffffffffffffffffffffffffff16815260200190815260200160002060006101000a81548160ff0219169083151502179055508173ffffffffffffffffffffffffffffffffffffffff168373ffffffffffffffffffffffffffffffffffffffff167f17307eab39ab6107e8899845ad3d59bd9653f200f220920489ca2b5937696c3183604051611bbf9190612d8d565b60405180910390a3505050565b611bd78484846114f9565b611be384848484611e32565b611c22576040517f08c379a0000000000000000000000000000000000000000000000000000000008152600401611c1990612dea565b60405180910390fd5b50505050565b6060611c3382611246565b611c72576040517f08c379a0000000000000000000000000000000000000000000000000000000008152600401611c6990612fea565b60405180910390fd5b6000600660008481526020019081526020016000208054611c929061333d565b80601f0160208091040260200160405190810160405280929190818152602001828054611cbe9061333d565b8015611d0b5780601f10611ce057610100808354040283529160200191611d0b565b820191906000526020600020905b815481529060010190602001808311611cee57829003601f168201915b505050505090506000611d1c611fc9565b9050600081511415611d32578192505050611d75565b600082511115611d67578082604051602001611d4f929190612cd2565b60405160208183030381529060405292505050611d75565b611d7084611fe0565b925050505b919050565b611d848383612087565b611d916000848484611e32565b611dd0576040517f08c379a0000000000000000000000000000000000000000000000000000000008152600401611dc790612dea565b60405180910390fd5b505050565b611ddd610b9c565b15611e1d576040517f08c379a0000000000000000000000000000000000000000000000000000000008152600401611e1490612f2a565b60405180910390fd5b611e28838383612261565b505050565b505050565b6000611e538473ffffffffffffffffffffffffffffffffffffffff16612266565b15611fbc578373ffffffffffffffffffffffffffffffffffffffff1663150b7a02611e7c6112b2565b8786866040518563ffffffff1660e01b8152600401611e9e9493929190612d41565b602060405180830381600087803b158015611eb857600080fd5b505af1925050508015611ee957506040513d601f19601f82011682018060405250810190611ee69190612836565b60015b611f6c573d8060008114611f19576040519150601f19603f3d011682016040523d82523d6000602084013e611f1e565b606091505b50600081511415611f64576040517f08c379a0000000000000000000000000000000000000000000000000000000008152600401611f5b90612dea565b60405180910390fd5b805181602001fd5b63150b7a0260e01b7bffffffffffffffffffffffffffffffffffffffffffffffffffffffff1916817bffffffffffffffffffffffffffffffffffffffffffffffffffffffff191614915050611fc1565b600190505b949350505050565b606060405180602001604052806000815250905090565b6060611feb82611246565b61202a576040517f08c379a00000000000000000000000000000000000000000000000000000000081526004016120219061304a565b60405180910390fd5b6000612034611fc9565b90506000815111612054576040518060200160405280600081525061207f565b8061205e84612289565b60405160200161206f929190612cd2565b6040516020818303038152906040525b915050919050565b600073ffffffffffffffffffffffffffffffffffffffff168273ffffffffffffffffffffffffffffffffffffffff1614156120f7576040517f08c379a00000000000000000000000000000000000000000000000000000000081526004016120ee90612fca565b60405180910390fd5b61210081611246565b15612140576040517f08c379a000000000000000000000000000000000000000000000000000000000815260040161213790612e4a565b60405180910390fd5b61214c60008383611dd5565b6001600360008473ffffffffffffffffffffffffffffffffffffffff1673ffffffffffffffffffffffffffffffffffffffff168152602001908152602001600020600082825461219c91906131ba565b92505081905550816002600083815260200190815260200160002060006101000a81548173ffffffffffffffffffffffffffffffffffffffff021916908373ffffffffffffffffffffffffffffffffffffffff160217905550808273ffffffffffffffffffffffffffffffffffffffff16600073ffffffffffffffffffffffffffffffffffffffff167fddf252ad1be2c89b69c2b068fc378daa952ba7f163c4a11628f55a4df523b3ef60405160405180910390a461225d60008383611e2d565b5050565b505050565b6000808273ffffffffffffffffffffffffffffffffffffffff163b119050919050565b606060008214156122d1576040518060400160405280600181526020017f30000000000000000000000000000000000000000000000000000000000000008152509050612431565b600082905060005b600082146123035780806122ec906133a0565b915050600a826122fc9190613210565b91506122d9565b60008167ffffffffffffffff811115612345577f4e487b7100000000000000000000000000000000000000000000000000000000600052604160045260246000fd5b6040519080825280601f01601f1916602001820160405280156123775781602001600182028036833780820191505090505b5090505b6000851461242a576001826123909190613241565b9150600a8561239f91906133e9565b60306123ab91906131ba565b60f81b8183815181106123e7577f4e487b7100000000000000000000000000000000000000000000000000000000600052603260045260246000fd5b60200101907effffffffffffffffffffffffffffffffffffffffffffffffffffffffffffff1916908160001a905350600a856124239190613210565b945061237b565b8093505050505b919050565b8280546124429061333d565b90600052602060002090601f01602090048101928261246457600085556124ab565b82601f1061247d57805160ff19168380011785556124ab565b828001600101855582156124ab579182015b828111156124aa57825182559160200191906001019061248f565b5b5090506124b891906124bc565b5090565b5b808211156124d55760008160009055506001016124bd565b5090565b60006124ec6124e78461310a565b6130e5565b90508281526020810184848401111561250457600080fd5b61250f8482856132fb565b509392505050565b600061252a6125258461313b565b6130e5565b90508281526020810184848401111561254257600080fd5b61254d8482856132fb565b509392505050565b60008135905061256481613b22565b92915050565b60008135905061257981613b39565b92915050565b60008135905061258e81613b50565b92915050565b6000815190506125a381613b50565b92915050565b600082601f8301126125ba57600080fd5b81356125ca8482602086016124d9565b91505092915050565b600082601f8301126125e457600080fd5b81356125f4848260208601612517565b91505092915050565b60008135905061260c81613b67565b92915050565b60006020828403121561262457600080fd5b600061263284828501612555565b91505092915050565b6000806040838503121561264e57600080fd5b600061265c85828601612555565b925050602061266d85828601612555565b9150509250929050565b60008060006060848603121561268c57600080fd5b600061269a86828701612555565b93505060206126ab86828701612555565b92505060406126bc868287016125fd565b9150509250925092565b600080600080608085870312156126dc57600080fd5b60006126ea87828801612555565b94505060206126fb87828801612555565b935050604061270c878288016125fd565b925050606085013567ffffffffffffffff81111561272957600080fd5b612735878288016125a9565b91505092959194509250565b6000806040838503121561275457600080fd5b600061276285828601612555565b92505060206127738582860161256a565b9150509250929050565b6000806040838503121561279057600080fd5b600061279e85828601612555565b925050602083013567ffffffffffffffff8111156127bb57600080fd5b6127c7858286016125d3565b9150509250929050565b600080604083850312156127e457600080fd5b60006127f285828601612555565b9250506020612803858286016125fd565b9150509250929050565b60006020828403121561281f57600080fd5b600061282d8482850161257f565b91505092915050565b60006020828403121561284857600080fd5b600061285684828501612594565b91505092915050565b60006020828403121561287157600080fd5b600061287f848285016125fd565b91505092915050565b61289181613287565b82525050565b6128a081613275565b82525050565b6128af81613299565b82525050565b60006128c08261316c565b6128ca8185613182565b93506128da81856020860161330a565b6128e3816134d6565b840191505092915050565b60006128f982613177565b612903818561319e565b935061291381856020860161330a565b61291c816134d6565b840191505092915050565b600061293282613177565b61293c81856131af565b935061294c81856020860161330a565b80840191505092915050565b600061296560148361319e565b9150612970826134e7565b602082019050919050565b600061298860328361319e565b915061299382613510565b604082019050919050565b60006129ab60268361319e565b91506129b68261355f565b604082019050919050565b60006129ce60258361319e565b91506129d9826135ae565b604082019050919050565b60006129f1601c8361319e565b91506129fc826135fd565b602082019050919050565b6000612a1460248361319e565b9150612a1f82613626565b604082019050919050565b6000612a3760198361319e565b9150612a4282613675565b602082019050919050565b6000612a5a601f8361319e565b9150612a658261369e565b602082019050919050565b6000612a7d603a8361319e565b9150612a88826136c7565b604082019050919050565b6000612aa0601d8361319e565b9150612aab82613716565b602082019050919050565b6000612ac3602c8361319e565b9150612ace8261373f565b604082019050919050565b6000612ae660108361319e565b9150612af18261378e565b602082019050919050565b6000612b0960388361319e565b9150612b14826137b7565b604082019050919050565b6000612b2c602a8361319e565b9150612b3782613806565b604082019050919050565b6000612b4f60298361319e565b9150612b5a82613855565b604082019050919050565b6000612b72602e8361319e565b9150612b7d826138a4565b604082019050919050565b6000612b9560208361319e565b9150612ba0826138f3565b602082019050919050565b6000612bb860318361319e565b9150612bc38261391c565b604082019050919050565b6000612bdb602c8361319e565b9150612be68261396b565b604082019050919050565b6000612bfe60208361319e565b9150612c09826139ba565b602082019050919050565b6000612c21602f8361319e565b9150612c2c826139e3565b604082019050919050565b6000612c4460238361319e565b9150612c4f82613a32565b604082019050919050565b6000612c6760218361319e565b9150612c7282613a81565b604082019050919050565b6000612c8a600083613193565b9150612c9582613ad0565b600082019050919050565b6000612cad60318361319e565b9150612cb882613ad3565b604082019050919050565b612ccc816132f1565b82525050565b6000612cde8285612927565b9150612cea8284612927565b91508190509392505050565b6000612d0182612c7d565b9150819050919050565b6000602082019050612d206000830184612897565b92915050565b6000602082019050612d3b6000830184612888565b92915050565b6000608082019050612d566000830187612897565b612d636020830186612897565b612d706040830185612cc3565b8181036060830152612d8281846128b5565b905095945050505050565b6000602082019050612da260008301846128a6565b92915050565b60006020820190508181036000830152612dc281846128ee565b905092915050565b60006020820190508181036000830152612de381612958565b9050919050565b60006020820190508181036000830152612e038161297b565b9050919050565b60006020820190508181036000830152612e238161299e565b9050919050565b60006020820190508181036000830152612e43816129c1565b9050919050565b60006020820190508181036000830152612e63816129e4565b9050919050565b60006020820190508181036000830152612e8381612a07565b9050919050565b60006020820190508181036000830152612ea381612a2a565b9050919050565b60006020820190508181036000830152612ec381612a4d565b9050919050565b60006020820190508181036000830152612ee381612a70565b9050919050565b60006020820190508181036000830152612f0381612a93565b9050919050565b60006020820190508181036000830152612f2381612ab6565b9050919050565b60006020820190508181036000830152612f4381612ad9565b9050919050565b60006020820190508181036000830152612f6381612afc565b9050919050565b60006020820190508181036000830152612f8381612b1f565b9050919050565b60006020820190508181036000830152612fa381612b42565b9050919050565b60006020820190508181036000830152612fc381612b65565b9050919050565b60006020820190508181036000830152612fe381612b88565b9050919050565b6000602082019050818103600083015261300381612bab565b9050919050565b6000602082019050818103600083015261302381612bce565b9050919050565b6000602082019050818103600083015261304381612bf1565b9050919050565b6000602082019050818103600083015261306381612c14565b9050919050565b6000602082019050818103600083015261308381612c37565b9050919050565b600060208201905081810360008301526130a381612c5a565b9050919050565b600060208201905081810360008301526130c381612ca0565b9050919050565b60006020820190506130df6000830184612cc3565b92915050565b60006130ef613100565b90506130fb828261336f565b919050565b6000604051905090565b600067ffffffffffffffff821115613125576131246134a7565b5b61312e826134d6565b9050602081019050919050565b600067ffffffffffffffff821115613156576131556134a7565b5b61315f826134d6565b9050602081019050919050565b600081519050919050565b600081519050919050565b600082825260208201905092915050565b600081905092915050565b600082825260208201905092915050565b600081905092915050565b60006131c5826132f1565b91506131d0836132f1565b9250827fffffffffffffffffffffffffffffffffffffffffffffffffffffffffffffffff038211156132055761320461341a565b5b828201905092915050565b600061321b826132f1565b9150613226836132f1565b92508261323657613235613449565b5b828204905092915050565b600061324c826132f1565b9150613257836132f1565b92508282101561326a5761326961341a565b5b828203905092915050565b6000613280826132d1565b9050919050565b6000613292826132d1565b9050919050565b60008115159050919050565b60007fffffffff0000000000000000000000000000000000000000000000000000000082169050919050565b600073ffffffffffffffffffffffffffffffffffffffff82169050919050565b6000819050919050565b82818337600083830152505050565b60005b8381101561332857808201518184015260208101905061330d565b83811115613337576000848401525b50505050565b6000600282049050600182168061335557607f821691505b6020821081141561336957613368613478565b5b50919050565b613378826134d6565b810181811067ffffffffffffffff82111715613397576133966134a7565b5b80604052505050565b60006133ab826132f1565b91507fffffffffffffffffffffffffffffffffffffffffffffffffffffffffffffffff8214156133de576133dd61341a565b5b600182019050919050565b60006133f4826132f1565b91506133ff836132f1565b92508261340f5761340e613449565b5b828206905092915050565b7f4e487b7100000000000000000000000000000000000000000000000000000000600052601160045260246000fd5b7f4e487b7100000000000000000000000000000000000000000000000000000000600052601260045260246000fd5b7f4e487b7100000000000000000000000000000000000000000000000000000000600052602260045260246000fd5b7f4e487b7100000000000000000000000000000000000000000000000000000000600052604160045260246000fd5b6000601f19601f8301169050919050565b7f5061757361626c653a206e6f7420706175736564000000000000000000000000600082015250565b7f4552433732313a207472616e7366657220746f206e6f6e20455243373231526560008201527f63656976657220696d706c656d656e7465720000000000000000000000000000602082015250565b7f4f776e61626c653a206e6577206f776e657220697320746865207a65726f206160008201527f6464726573730000000000000000000000000000000000000000000000000000602082015250565b7f4552433732313a207472616e736665722066726f6d20696e636f72726563742060008201527f6f776e6572000000000000000000000000000000000000000000000000000000602082015250565b7f4552433732313a20746f6b656e20616c7265616479206d696e74656400000000600082015250565b7f4552433732313a207472616e7366657220746f20746865207a65726f2061646460008201527f7265737300000000000000000000000000000000000000000000000000000000602082015250565b7f4552433732313a20617070726f766520746f2063616c6c657200000000000000600082015250565b7f45746865722076616c75652073656e74206973206e6f7420636f727265637400600082015250565b7f416464726573733a20756e61626c6520746f2073656e642076616c75652c207260008201527f6563697069656e74206d61792068617665207265766572746564000000000000602082015250565b7f416464726573733a20696e73756666696369656e742062616c616e6365000000600082015250565b7f4552433732313a206f70657261746f7220717565727920666f72206e6f6e657860008201527f697374656e7420746f6b656e0000000000000000000000000000000000000000602082015250565b7f5061757361626c653a2070617573656400000000000000000000000000000000600082015250565b7f4552433732313a20617070726f76652063616c6c6572206973206e6f74206f7760008201527f6e6572206e6f7220617070726f76656420666f7220616c6c0000000000000000602082015250565b7f4552433732313a2062616c616e636520717565727920666f7220746865207a6560008201527f726f206164647265737300000000000000000000000000000000000000000000602082015250565b7f4552433732313a206f776e657220717565727920666f72206e6f6e657869737460008201527f656e7420746f6b656e0000000000000000000000000000000000000000000000602082015250565b7f45524337323155524953746f726167653a2055524920736574206f66206e6f6e60008201527f6578697374656e7420746f6b656e000000000000000000000000000000000000602082015250565b7f4552433732313a206d696e7420746f20746865207a65726f2061646472657373600082015250565b7f45524337323155524953746f726167653a2055524920717565727920666f722060008201527f6e6f6e6578697374656e7420746f6b656e000000000000000000000000000000602082015250565b7f4552433732313a20617070726f76656420717565727920666f72206e6f6e657860008201527f697374656e7420746f6b656e0000000000000000000000000000000000000000602082015250565b7f4f776e61626c653a2063616c6c6572206973206e6f7420746865206f776e6572600082015250565b7f4552433732314d657461646174613a2055524920717565727920666f72206e6f60008201527f6e6578697374656e7420746f6b656e0000000000000000000000000000000000602082015250565b7f5061796d656e74206d757374206265206174206c6561737420302e303520657460008201527f6865720000000000000000000000000000000000000000000000000000000000602082015250565b7f4552433732313a20617070726f76616c20746f2063757272656e74206f776e6560008201527f7200000000000000000000000000000000000000000000000000000000000000602082015250565b50565b7f4552433732313a207472616e736665722063616c6c6572206973206e6f74206f60008201527f776e6572206e6f7220617070726f766564000000000000000000000000000000602082015250565b613b2b81613275565b8114613b3657600080fd5b50565b613b4281613299565b8114613b4d57600080fd5b50565b613b59816132a5565b8114613b6457600080fd5b50565b613b70816132f1565b8114613b7b57600080fd5b5056fea264697066735822122096deae005214a4fce4ca6484aae2854db7aa7bcb5b78b2b154ae4ce1c407f27864736f6c63430008040033",
    "linkReferences": {},
    "deployedLinkReferences": {}
}